{
  "contractName": "AirDrop",
  "abi": [
    {
      "constant": false,
      "inputs": [],
      "name": "acceptOwnership",
      "outputs": [],
      "payable": false,
      "stateMutability": "nonpayable",
      "type": "function"
    },
    {
      "constant": true,
      "inputs": [],
      "name": "owner",
      "outputs": [
        {
          "name": "",
          "type": "address"
        }
      ],
      "payable": false,
      "stateMutability": "view",
      "type": "function"
    },
    {
      "constant": true,
      "inputs": [],
      "name": "newOwner",
      "outputs": [
        {
          "name": "",
          "type": "address"
        }
      ],
      "payable": false,
      "stateMutability": "view",
      "type": "function"
    },
    {
      "constant": false,
      "inputs": [
        {
          "name": "_newOwner",
          "type": "address"
        }
      ],
      "name": "transferOwnership",
      "outputs": [],
      "payable": false,
      "stateMutability": "nonpayable",
      "type": "function"
    },
    {
      "inputs": [],
      "payable": false,
      "stateMutability": "nonpayable",
      "type": "constructor"
    },
    {
      "anonymous": false,
      "inputs": [
        {
          "indexed": true,
          "name": "to",
          "type": "address"
        },
        {
          "indexed": false,
          "name": "value",
          "type": "uint256"
        }
      ],
      "name": "TransferredToken",
      "type": "event"
    },
    {
      "anonymous": false,
      "inputs": [
        {
          "indexed": true,
          "name": "to",
          "type": "address"
        },
        {
          "indexed": false,
          "name": "value",
          "type": "uint256"
        }
      ],
      "name": "FailedTransfer",
      "type": "event"
    },
    {
      "anonymous": false,
      "inputs": [
        {
          "indexed": true,
          "name": "_from",
          "type": "address"
        },
        {
          "indexed": true,
          "name": "_to",
          "type": "address"
        }
      ],
      "name": "OwnershipTransferred",
      "type": "event"
    },
    {
      "constant": true,
      "inputs": [],
      "name": "isActive",
      "outputs": [
        {
          "name": "",
          "type": "bool"
        }
      ],
      "payable": false,
      "stateMutability": "view",
      "type": "function"
    },
    {
      "constant": false,
      "inputs": [
        {
          "name": "dests",
          "type": "address[]"
        },
        {
          "name": "values",
          "type": "uint256[]"
        }
      ],
      "name": "sendTokens",
      "outputs": [],
      "payable": false,
      "stateMutability": "nonpayable",
      "type": "function"
    },
    {
      "constant": false,
      "inputs": [
        {
          "name": "dests",
          "type": "address[]"
        },
        {
          "name": "value",
          "type": "uint256"
        }
      ],
      "name": "sendTokensSingleValue",
      "outputs": [],
      "payable": false,
      "stateMutability": "nonpayable",
      "type": "function"
    },
    {
      "constant": true,
      "inputs": [],
      "name": "tokensAvailable",
      "outputs": [
        {
          "name": "",
          "type": "uint256"
        }
      ],
      "payable": false,
      "stateMutability": "view",
      "type": "function"
    },
    {
      "constant": false,
      "inputs": [],
      "name": "destroy",
      "outputs": [],
      "payable": false,
      "stateMutability": "nonpayable",
      "type": "function"
    }
  ],
  "bytecode": "0x608060405234801561001057600080fd5b5060008054600160a060020a033316600160a060020a03199182161790915560028054909116738bc0978b628c93c86ae79e53017b30363fe8184017905561077b8061005d6000396000f3006080604052600436106100985763ffffffff7c010000000000000000000000000000000000000000000000000000000060003504166322f3e2d4811461009d57806354919a6c146100c657806360659a921461011f57806379ba50971461014657806383197ef01461015b5780638da5cb5b14610170578063d4ee1d90146101a1578063d8b66ae1146101b6578063f2fde38b14610244575b600080fd5b3480156100a957600080fd5b506100b2610265565b604080519115158252519081900360200190f35b3480156100d257600080fd5b506040805160206004803580820135838102808601850190965280855261011d9536959394602494938501929182918501908490808284375094975050933594506102769350505050565b005b34801561012b57600080fd5b506101346102e7565b60408051918252519081900360200190f35b34801561015257600080fd5b5061011d610383565b34801561016757600080fd5b5061011d61040f565b34801561017c57600080fd5b506101856104fc565b60408051600160a060020a039092168252519081900360200190f35b3480156101ad57600080fd5b5061018561050b565b3480156101c257600080fd5b506040805160206004803580820135838102808601850190965280855261011d95369593946024949385019291829185019084908082843750506040805187358901803560208181028481018201909552818452989b9a99890198929750908201955093508392508501908490808284375094975061051a9650505050505050565b34801561025057600080fd5b5061011d600160a060020a03600435166105be565b6000806102706102e7565b11905090565b600080610281610265565b151561028957fe5b60005433600160a060020a039081169116146102a457600080fd5b5060009050815b83518210156102e1576102d684838151811015156102c557fe5b906020019060200201518285610608565b6001909101906102ab565b50505050565b600254604080517f70a08231000000000000000000000000000000000000000000000000000000008152600160a060020a033081166004830152915160009392909216916370a082319160248082019260209290919082900301818787803b15801561035257600080fd5b505af1158015610366573d6000803e3d6000fd5b505050506040513d602081101561037c57600080fd5b5051905090565b60015433600160a060020a0390811691161461039e57600080fd5b60015460008054604051600160a060020a0393841693909116917f8be0079c531659141344cd1fd0a4f28419497f9722a3daafe3b4186f6b6457e091a3600180546000805473ffffffffffffffffffffffffffffffffffffffff19908116600160a060020a03841617909155169055565b6000805433600160a060020a0390811691161461042b57600080fd5b6104336102e7565b670de0b6b3a76400000290506000811161044c57600080fd5b60025460008054604080517fa9059cbb000000000000000000000000000000000000000000000000000000008152600160a060020a039283166004820152602481018690529051919093169263a9059cbb9260448083019360209390929083900390910190829087803b1580156104c257600080fd5b505af11580156104d6573d6000803e3d6000fd5b505050506040513d60208110156104ec57600080fd5b5050600054600160a060020a0316ff5b600054600160a060020a031681565b600154600160a060020a031681565b600080610525610265565b151561052d57fe5b60005433600160a060020a0390811691161461054857600080fd5b600091505b83518210156102e157828281518110151561056457fe5b90602001906020020151670de0b6b3a76400000290506105b3848381518110151561058b57fe5b906020019060200201518285858151811015156105a457fe5b90602001906020020151610608565b60019091019061054d565b60005433600160a060020a039081169116146105d957600080fd5b6001805473ffffffffffffffffffffffffffffffffffffffff1916600160a060020a0392909216919091179055565b600160a060020a038316151561061d5761074a565b816106266102e7565b1061070a57600254604080517fa9059cbb000000000000000000000000000000000000000000000000000000008152600160a060020a038681166004830152602482018690529151919092169163a9059cbb9160448083019260209291908290030181600087803b15801561069a57600080fd5b505af11580156106ae573d6000803e3d6000fd5b505050506040513d60208110156106c457600080fd5b5050604080518281529051600160a060020a038516917f69baa4ba19fc045bffcd13735ba5201d924fe4c49c78c2e214b8f2559044d8b1919081900360200190a261074a565b604080518281529051600160a060020a038516917f3506b32cea6b36a739c1c2a71a9e1b3d6222104389c07219059fa6eb6d2e0563919081900360200190a25b5050505600a165627a7a723058204c8538aa77ae4670803535e6f44e6651b12ea59e0fcc41fd3f48f45ca8e87a450029",
  "source": "pragma solidity ^0.4.19;\r\n\r\nimport './erc20.sol';\r\n\r\ncontract AirDrop is Owned {\r\n\r\n  ERC20Interface token;\r\n\r\n  event TransferredToken(address indexed to, uint256 value);\r\n  event FailedTransfer(address indexed to, uint256 value);\r\n\r\n  modifier whenDropIsActive() {\r\n    assert(isActive());\r\n\r\n    _;\r\n  }\r\n\r\n  constructor() public {\r\n      address _tokenAddr = 0x8bc0978B628C93c86aE79e53017b30363FE81840; //ETECH smartcontract address\r\n      token = ERC20Interface(_tokenAddr);\r\n  }\r\n\r\n  function isActive() public constant returns (bool) {\r\n    return (\r\n        tokensAvailable() > 0 // Tokens must be available to send\r\n    );\r\n  }\r\n\r\n\r\n//below function can be used when you want to send every recipient with different number of tokens\r\nfunction sendTokens(address[] dests, uint256[] values) public whenDropIsActive onlyOwner {\r\n    uint256 i = 0;\r\n    while (i < dests.length) {\r\n        uint256 toSend = values[i]*10**18; \t//    \"* 10**18\" was here on this line, changed it to 10^0 because ETECHToken has 0 decimals??? Idk.\r\n        sendInternally(dests[i] , toSend, values[i]);\r\n        i++;\r\n    }\r\n  }\r\n//\r\n//\r\n//\r\n//\r\n\r\n\r\n// this function can be used when you want to send same number of tokens to all the recipients\r\n  function sendTokensSingleValue(address[] dests, uint256 value) whenDropIsActive onlyOwner public {\r\n    uint256 i = 0;\r\n    uint256 toSend = value;\r\n    while (i < dests.length) {\r\n        sendInternally(dests[i] , toSend, value);\r\n        i++;\r\n    }\r\n  }  \r\n\r\n  function sendInternally(address recipient, uint256 tokensToSend, uint256 valueToPresent) internal {\r\n    if(recipient == address(0)) return;\r\n\r\n    if(tokensAvailable() >= tokensToSend) {\r\n      token.transfer(recipient, tokensToSend);\r\n      emit TransferredToken(recipient, valueToPresent);\r\n    } else {\r\n      emit FailedTransfer(recipient, valueToPresent); \r\n    }\r\n  }   \r\n\r\n\r\n  function tokensAvailable() public constant returns (uint256) {\r\n    return token.balanceOf(this);\r\n  }\r\n\r\n  function destroy() onlyOwner public{\r\n    uint256 balance = tokensAvailable() *10**18;\r\n    require (balance > 0);\r\n    token.transfer(owner, balance);\r\n    selfdestruct(owner);\r\n  }\r\n\r\n}",
  "sourcePath": "/mnt/c/work/vue-leave-system/contracts/Airdrop.sol",
  "compiler": {
    "name": "solc",
    "version": "0.4.23+commit.124ca40d.Emscripten.clang"
  },
  "schemaVersion": "2.0.0",
  "updatedAt": "2018-06-07T07:10:00.961Z"
}