{
  "contractName": "LeaveSystemTokenized",
  "abi": [
    {
      "inputs": [],
      "payable": false,
      "stateMutability": "nonpayable",
      "type": "constructor"
    },
    {
      "anonymous": false,
      "inputs": [
        {
          "indexed": false,
          "name": "user",
          "type": "address"
        }
      ],
      "name": "UserJoined",
      "type": "event"
    },
    {
      "anonymous": false,
      "inputs": [
        {
          "indexed": false,
          "name": "user",
          "type": "address"
        },
        {
          "indexed": false,
          "name": "leaves",
          "type": "uint256"
        }
      ],
      "name": "LeaveApplied",
      "type": "event"
    },
    {
      "anonymous": false,
      "inputs": [
        {
          "indexed": false,
          "name": "leave_index",
          "type": "uint256"
        }
      ],
      "name": "LeaveApproved",
      "type": "event"
    },
    {
      "anonymous": false,
      "inputs": [
        {
          "indexed": false,
          "name": "leave_index",
          "type": "uint256"
        }
      ],
      "name": "LeaveDisallowed",
      "type": "event"
    },
    {
      "constant": true,
      "inputs": [],
      "name": "isContractOwner",
      "outputs": [
        {
          "name": "",
          "type": "bool"
        }
      ],
      "payable": false,
      "stateMutability": "view",
      "type": "function"
    },
    {
      "constant": false,
      "inputs": [
        {
          "name": "userId",
          "type": "uint256"
        }
      ],
      "name": "joinUser",
      "outputs": [],
      "payable": false,
      "stateMutability": "nonpayable",
      "type": "function"
    },
    {
      "constant": false,
      "inputs": [
        {
          "name": "addr",
          "type": "address"
        },
        {
          "name": "userId",
          "type": "uint256"
        }
      ],
      "name": "addUser",
      "outputs": [],
      "payable": false,
      "stateMutability": "nonpayable",
      "type": "function"
    },
    {
      "constant": true,
      "inputs": [],
      "name": "getUser",
      "outputs": [
        {
          "name": "",
          "type": "uint256"
        }
      ],
      "payable": false,
      "stateMutability": "view",
      "type": "function"
    },
    {
      "constant": true,
      "inputs": [],
      "name": "getMyLeaves",
      "outputs": [
        {
          "name": "",
          "type": "uint256"
        }
      ],
      "payable": false,
      "stateMutability": "view",
      "type": "function"
    },
    {
      "constant": true,
      "inputs": [
        {
          "name": "addr",
          "type": "address"
        }
      ],
      "name": "getUserId",
      "outputs": [
        {
          "name": "",
          "type": "uint256"
        }
      ],
      "payable": false,
      "stateMutability": "view",
      "type": "function"
    },
    {
      "constant": true,
      "inputs": [
        {
          "name": "addr",
          "type": "address"
        }
      ],
      "name": "getLeaves",
      "outputs": [
        {
          "name": "",
          "type": "uint256"
        }
      ],
      "payable": false,
      "stateMutability": "view",
      "type": "function"
    },
    {
      "constant": false,
      "inputs": [
        {
          "name": "leave_id",
          "type": "uint256"
        },
        {
          "name": "no_days",
          "type": "uint256"
        }
      ],
      "name": "applyLeave",
      "outputs": [],
      "payable": false,
      "stateMutability": "nonpayable",
      "type": "function"
    },
    {
      "constant": false,
      "inputs": [
        {
          "name": "leave_index",
          "type": "uint256"
        }
      ],
      "name": "approveLeave",
      "outputs": [],
      "payable": false,
      "stateMutability": "nonpayable",
      "type": "function"
    },
    {
      "constant": false,
      "inputs": [
        {
          "name": "leave_index",
          "type": "uint256"
        }
      ],
      "name": "disallowLeave",
      "outputs": [],
      "payable": false,
      "stateMutability": "nonpayable",
      "type": "function"
    },
    {
      "constant": true,
      "inputs": [],
      "name": "getLeaveList",
      "outputs": [
        {
          "name": "",
          "type": "uint256[]"
        }
      ],
      "payable": false,
      "stateMutability": "view",
      "type": "function"
    },
    {
      "constant": true,
      "inputs": [],
      "name": "getEmployeeApprovedLeaveList",
      "outputs": [
        {
          "name": "",
          "type": "uint256[]"
        }
      ],
      "payable": false,
      "stateMutability": "view",
      "type": "function"
    },
    {
      "constant": true,
      "inputs": [],
      "name": "getEmployeePendingLeaveList",
      "outputs": [
        {
          "name": "",
          "type": "uint256[]"
        }
      ],
      "payable": false,
      "stateMutability": "view",
      "type": "function"
    },
    {
      "constant": true,
      "inputs": [
        {
          "name": "index",
          "type": "uint256"
        }
      ],
      "name": "getLeaveDetail",
      "outputs": [
        {
          "name": "",
          "type": "uint256"
        },
        {
          "name": "",
          "type": "uint256"
        },
        {
          "name": "",
          "type": "bool"
        },
        {
          "name": "",
          "type": "address"
        },
        {
          "name": "",
          "type": "uint256"
        },
        {
          "name": "",
          "type": "address"
        }
      ],
      "payable": false,
      "stateMutability": "view",
      "type": "function"
    },
    {
      "constant": false,
      "inputs": [
        {
          "name": "employee",
          "type": "address"
        },
        {
          "name": "monthly_leaves",
          "type": "uint256"
        }
      ],
      "name": "addEmployeeLeave",
      "outputs": [],
      "payable": false,
      "stateMutability": "nonpayable",
      "type": "function"
    },
    {
      "constant": false,
      "inputs": [],
      "name": "buyLeave",
      "outputs": [],
      "payable": true,
      "stateMutability": "payable",
      "type": "function"
    },
    {
      "constant": true,
      "inputs": [],
      "name": "exchangeRate",
      "outputs": [
        {
          "name": "",
          "type": "uint256"
        }
      ],
      "payable": false,
      "stateMutability": "pure",
      "type": "function"
    },
    {
      "constant": true,
      "inputs": [],
      "name": "tokensAvailable",
      "outputs": [
        {
          "name": "",
          "type": "uint256"
        }
      ],
      "payable": false,
      "stateMutability": "view",
      "type": "function"
    },
    {
      "constant": false,
      "inputs": [],
      "name": "destroy",
      "outputs": [],
      "payable": false,
      "stateMutability": "nonpayable",
      "type": "function"
    }
  ],
  "bytecode": "0x608060405234801561001057600080fd5b5060008054600160a060020a033316600160a060020a03199182161790915560038054909116738bc0978b628c93c86ae79e53017b30363fe8184017905561137f8061005d6000396000f3006080604052600436106101065763ffffffff7c010000000000000000000000000000000000000000000000000000000060003504166309748585811461010b5780630c32c55c1461017057806322dee2e9146101965780632b956ff7146101ab5780633b4d2e8d146101de5780633ba0b9a9146101f657806360659a921461020b57806366b45eed1461022057806368f4ab75146102415780637f7dcdbf1461025c57806383197ef014610285578063832880e71461029a578063a39bc1ae146102af578063a6be04eb146102c7578063b89e2375146102dc578063c2f4a4b8146102e4578063d3017193146102fc578063eac949e914610320578063fe4c1b2414610374575b600080fd5b34801561011757600080fd5b50610120610389565b60408051602080825283518183015283519192839290830191858101910280838360005b8381101561015c578181015183820152602001610144565b505050509050019250505060405180910390f35b34801561017c57600080fd5b50610194600160a060020a0360043516602435610440565b005b3480156101a257600080fd5b5061012061050e565b3480156101b757600080fd5b506101cc600160a060020a03600435166105ba565b60408051918252519081900360200190f35b3480156101ea57600080fd5b506101946004356105f2565b34801561020257600080fd5b506101cc61068b565b34801561021757600080fd5b506101cc610691565b34801561022c57600080fd5b506101cc600160a060020a036004351661072d565b34801561024d57600080fd5b506101946004356024356107e6565b34801561026857600080fd5b50610271610a7f565b604080519115158252519081900360200190f35b34801561029157600080fd5b50610194610a94565b3480156102a657600080fd5b506101cc610b77565b3480156102bb57600080fd5b50610194600435610b93565b3480156102d357600080fd5b506101cc610dc8565b610194610e88565b3480156102f057600080fd5b50610194600435610f76565b34801561030857600080fd5b50610194600160a060020a03600435166024356110ec565b34801561032c57600080fd5b5061033860043561117e565b60408051968752602087019590955292151585850152600160a060020a03918216606086015260808501521660a0830152519081900360c00190f35b34801561038057600080fd5b5061012061125e565b600080546060918291819033600160a060020a039081169116146103ac57600080fd5b604080516050808252610a2082019092529060208201610a008038833901905050925060009150600090505b6002548110156104385760028054829081106103f057fe5b600091825260209091206002600590920201015460ff1615156104305780600101838381518110151561041f57fe5b602090810290910101526001909101905b6001016103d8565b509092915050565b60005433600160a060020a0390811691161461045b57600080fd5b600354604080517fa9059cbb000000000000000000000000000000000000000000000000000000008152600160a060020a038581166004830152670de0b6b3a7640000850260248301529151919092169163a9059cbb9160448083019260209291908290030181600087803b1580156104d357600080fd5b505af11580156104e7573d6000803e3d6000fd5b505050506040513d60208110156104fd57600080fd5b5051151561050a57600080fd5b5050565b604080516050808252610a208201909252606091829160009182919060208201610a008038833901905050925060009150600090505b6002548110156104385733600160a060020a031660028281548110151561056757fe5b60009182526020909120600590910201600201546101009004600160a060020a031614156105b2578060010183838151811015156105a157fe5b602090810290910101526001909101905b600101610544565b6000805433600160a060020a039081169116146105d657600080fd5b50600160a060020a031660009081526001602052604090205490565b6105fa61130c565b6000821161060757600080fd5b600160a060020a0333166000908152600160205260409020541561062a57600080fd5b506040805160208181018352838252600160a060020a033316600081815260018352849020835190558351908152925191927f4028b92b6812cf0ad64ad14283561bd81eaf1d9e718a6eabcfd40016f83bd1e9929081900390910190a15050565b6103e890565b600354604080517f70a08231000000000000000000000000000000000000000000000000000000008152600160a060020a033081166004830152915160009392909216916370a082319160248082019260209290919082900301818787803b1580156106fc57600080fd5b505af1158015610710573d6000803e3d6000fd5b505050506040513d602081101561072657600080fd5b5051905090565b60008054819033600160a060020a0390811691161461074b57600080fd5b600354604080517f70a08231000000000000000000000000000000000000000000000000000000008152600160a060020a038681166004830152915191909216916370a082319160248083019260209291908290030181600087803b1580156107b357600080fd5b505af11580156107c7573d6000803e3d6000fd5b505050506040513d60208110156107dd57600080fd5b50519392505050565b60006107f061131e565b600160a060020a033316600090815260016020526040902054151561081457600080fd5b6000831161082157600080fd5b600354604080517fdd62ed3e000000000000000000000000000000000000000000000000000000008152600160a060020a03338116600483015230811660248301529151919092169163dd62ed3e9160448083019260209291908290030181600087803b15801561089157600080fd5b505af11580156108a5573d6000803e3d6000fd5b505050506040513d60208110156108bb57600080fd5b50519150670de0b6b3a764000083028210156108d657600080fd5b506040805160c0810182528481526020808201858152600083850181815233600160a060020a03908116606087018181526080880185815260a0890186815260028054600181018255975289517f405787fa12a823e0f2b7631cc41b3ba8828b3321ca811111fa75cd3aa3bb5ace60059098029788015596517f405787fa12a823e0f2b7631cc41b3ba8828b3321ca811111fa75cd3aa3bb5acf87015593517f405787fa12a823e0f2b7631cc41b3ba8828b3321ca811111fa75cd3aa3bb5ad086018054925160ff199093169115159190911774ffffffffffffffffffffffffffffffffffffffff0019166101009285169290920291909117905591517f405787fa12a823e0f2b7631cc41b3ba8828b3321ca811111fa75cd3aa3bb5ad184015592517f405787fa12a823e0f2b7631cc41b3ba8828b3321ca811111fa75cd3aa3bb5ad2909201805473ffffffffffffffffffffffffffffffffffffffff191692909316919091179091558351908152908101859052825191927f5b1c7e0d74c949689e7dda74fc61f454bbf5895102bb71b95a7af806102cf0cb92918290030190a150505050565b60005433600160a060020a0390811691161490565b6000805433600160a060020a03908116911614610ab057600080fd5b610ab8610691565b905060008111610ac757600080fd5b60035460008054604080517fa9059cbb000000000000000000000000000000000000000000000000000000008152600160a060020a039283166004820152602481018690529051919093169263a9059cbb9260448083019360209390929083900390910190829087803b158015610b3d57600080fd5b505af1158015610b51573d6000803e3d6000fd5b505050506040513d6020811015610b6757600080fd5b5050600054600160a060020a0316ff5b600160a060020a03331660009081526001602052604090205490565b610b9b61131e565b60005433600160a060020a03908116911614610bb657600080fd5b6002805483908110610bc457fe5b600091825260208083206040805160c0810182526005909402909101805484526001810154848401819052600282015460ff8116151586850152600160a060020a036101009091048116606087018190526003808501546080890152600494850154831660a08901525485517f23b872dd00000000000000000000000000000000000000000000000000000000815294850191909152308216602485015260448401929092529251949650909116936323b872dd93606480840194939192918390030190829087803b158015610c9957600080fd5b505af1158015610cad573d6000803e3d6000fd5b505050506040513d6020811015610cc357600080fd5b505060016040820152600160a060020a03331660a08201524260808201526002805482919084908110610cf257fe5b6000918252602091829020835160059290920201908155828201516001820155604080840151600283018054606087015160ff199091169215159290921774ffffffffffffffffffffffffffffffffffffffff001916610100600160a060020a03938416021790556080850151600384015560a0909401516004909201805473ffffffffffffffffffffffffffffffffffffffff19169290941691909117909255815184815291517f6527aed85d4bdb1699f360f8e892c09647c21c6f0d916171145095a2b0f99e379281900390910190a15050565b600160a060020a03331660009081526001602052604081205481901515610dee57600080fd5b600354604080517f70a08231000000000000000000000000000000000000000000000000000000008152600160a060020a033381166004830152915191909216916370a082319160248083019260209291908290030181600087803b158015610e5657600080fd5b505af1158015610e6a573d6000803e3d6000fd5b505050506040513d6020811015610e8057600080fd5b505192915050565b6000348110610e9657600080fd5b610e9e61068b565b600354604080517fa9059cbb000000000000000000000000000000000000000000000000000000008152600160a060020a0333811660048301523485026024830152915193945091169163a9059cbb916044808201926020929091908290030181600087803b158015610f1057600080fd5b505af1158015610f24573d6000803e3d6000fd5b505050506040513d6020811015610f3a57600080fd5b505060008054604051600160a060020a03909116913480156108fc02929091818181858888f1935050505015801561050a573d6000803e3d6000fd5b610f7e61131e565b60005433600160a060020a03908116911614610f9957600080fd5b6002805483908110610fa757fe5b600091825260208083206040805160c081018252600590940290910180548452600181015492840192909252600291820154600160a060020a0361010090910481166060850152908301939093523390921660a082015242608082015281549092508291908490811061101657fe5b6000918252602091829020835160059290920201908155828201516001820155604080840151600283018054606087015160ff199091169215159290921774ffffffffffffffffffffffffffffffffffffffff001916610100600160a060020a03938416021790556080850151600384015560a0909401516004909201805473ffffffffffffffffffffffffffffffffffffffff19169290941691909117909255815184815291517f8ccc4e72d664fa5c7a52e2d8e0c075715e11bde86ce9840f2a92b01cf90951a49281900390910190a15050565b6110f461130c565b60005433600160a060020a0390811691161461110f57600080fd5b6000821161111c57600080fd5b506040805160208181018352838252600160a060020a038516600081815260018352849020835190558351908152925191927f4028b92b6812cf0ad64ad14283561bd81eaf1d9e718a6eabcfd40016f83bd1e9929081900390910190a1505050565b60008060008060008061118f61131e565b600280548990811061119d57fe5b60009182526020918290206040805160c081018252600590930290910180548352600181015493830193909352600283015460ff8116151591830191909152600160a060020a0361010090910481166060830181905260038401546080840152600490930154811660a083015290925033161480611229575060005433600160a060020a039081169116145b15610106578051602082015160408301516060840151608085015160a090950151939c929b5090995097509195509350915050565b600080546060918291819033600160a060020a0390811691161461128157600080fd5b604080516050808252610a2082019092529060208201610a008038833901905050925060009150600090505b6002548110156104385760028054829081106112c557fe5b600091825260209091206002600590920201015460ff1615611304578060010183838151811015156112f357fe5b602090810290910101526001909101905b6001016112ad565b60408051602081019091526000815290565b6040805160c081018252600080825260208201819052918101829052606081018290526080810182905260a0810191909152905600a165627a7a72305820e3b5478968c4f88a947bcb18cb8c9fa6a64476aebe8f385e597fa1164c98aa540029",
  "source": "//leave management contract with ETECH Tokens\r\n\r\nimport './erc20.sol';\r\n\r\npragma solidity ^0.4.19;\r\n\r\ncontract LeaveSystemTokenized {\r\n    //data type of employee\r\n\tstruct Employee {\r\n\t    uint id; // id of employee from database\r\n\t}\r\n\t\r\n\tstruct Leave {\r\n\t    uint id;  //actual id of leave from database\r\n\t    uint no_days;  //number of days for which leave is applied\r\n\t    bool approved; // if leave is approved or not \r\n\t    address by; // person who applied the leave\r\n\t    uint action_at; // at what time was leave approved/disallowed \r\n\t    address action_by; // who approved/disallowed leave\r\n\t}\r\n\t\r\n\t//owner of the contract \r\n\taddress owner;\r\n\t\r\n\t//maintain a leave balance\r\n\tmapping (address => Employee) private employees;\r\n    \r\n    Leave[] private leaves;\r\n\t\r\n\tmodifier isOwner { require(msg.sender == owner); _; }\r\n\r\n    modifier isEmployee { require(employees[msg.sender].id != 0); _; }\r\n    \r\n    ERC20Interface token;\r\n\r\n\t//constructor\r\n\tconstructor() public {\r\n\t    owner = msg.sender;\r\n        address _tokenAddr = 0x8bc0978B628C93c86aE79e53017b30363FE81840; //ETECH smartcontract address\r\n        token = ERC20Interface(_tokenAddr);\r\n\t}\r\n\t\r\n\t//event to notify when a new user has joined\r\n    event UserJoined(address user);\r\n\tevent LeaveApplied(address user, uint leaves);\r\n\tevent LeaveApproved(uint leave_index);\r\n\tevent LeaveDisallowed(uint leave_index);\r\n\t\r\n\tfunction isContractOwner() public constant returns (bool){\r\n\t    return msg.sender == owner;\r\n\t}\r\n\t//function to add user to contract\r\n\tfunction joinUser(uint userId) public {\r\n\t    require(userId > 0);  //actual database user id from hr system\r\n\t    if(employees[msg.sender].id != 0) revert(); //revert if user already exists\r\n\t    \r\n\t    Employee memory user = Employee(userId);\r\n\t    employees[msg.sender] = user;\r\n\t    \r\n\t    emit UserJoined(msg.sender);\r\n\t}\r\n    \r\n    function addUser(address addr, uint userId) public isOwner {\r\n        \r\n        require(userId > 0);  //actual database user id from hr system\r\n\t    \r\n\t    Employee memory user = Employee(userId);\r\n\t    employees[addr] = user;\r\n\t    \r\n\t    emit UserJoined(addr);\r\n    }\r\n    \r\n    function getUser() public constant returns (uint){\r\n\t\treturn employees[msg.sender].id;\r\n\t}\r\n\r\n\tfunction getMyLeaves() public isEmployee constant returns (uint) {\r\n\t\tuint balance = token.balanceOf(msg.sender);\r\n\t\treturn balance;\r\n\t}  \r\n    \r\n\tfunction getUserId(address addr) public isOwner constant returns (uint){\r\n\t\treturn employees[addr].id;\r\n\t}\r\n\r\n\tfunction getLeaves(address addr) public isOwner constant returns (uint) {\r\n\t\tuint balance = token.balanceOf(addr);\r\n\t\treturn balance;\r\n\t} \r\n\t\r\n\r\n\tfunction applyLeave(uint leave_id, uint no_days) public isEmployee {\r\n\t     require(no_days > 0);\r\n\t     \r\n         uint allowance = token.allowance(msg.sender,this);\r\n\r\n\t     require(allowance >= no_days * 10 ** 18);\r\n\t     \r\n\t    \r\n\t     Leave memory leave = Leave(leave_id,no_days, false, msg.sender,0,address(0));\r\n\t     leaves.push(leave);\r\n\t     emit LeaveApplied(msg.sender,no_days);\r\n\t}\r\n\t\r\n\tfunction approveLeave(uint leave_index) public isOwner{\r\n\t    \r\n\t    \r\n\t    Leave memory leave = leaves[leave_index];\r\n\t    \r\n\t    token.transferFrom(leave.by, this, leave.no_days);\r\n\t    \r\n\t    leave.approved = true;\r\n\t    leave.action_by = msg.sender;\r\n\t    leave.action_at = now;\r\n\t    leaves[leave_index] = leave;\r\n\t    //delete leaves[leave_index];\r\n\t    // if we don't delete the leaves it will keep on charging more gas.\r\n\t    // https://ethereum.stackexchange.com/questions/872/what-is-the-cost-to-store-1kb-10kb-100kb-worth-of-data-into-the-ethereum-block\r\n\t    // so need a better solution\r\n\t    // but we need to keep all leave history as well.\r\n\t    emit LeaveApproved(leave_index);\r\n\t}\r\n\t\r\n\tfunction disallowLeave(uint leave_index) public isOwner{\r\n\t    Leave memory leave = leaves[leave_index];\r\n\t    leave.approved = false;\r\n\t    leave.action_by = msg.sender;\r\n\t    leave.action_at = now;\r\n\t    leaves[leave_index] = leave;\r\n\t    emit LeaveDisallowed(leave_index);\r\n\t}\r\n\t\r\n\tfunction getLeaveList() public constant returns (uint[]) {\r\n\t    //maximum restriction of 80 leaves\r\n\t    uint[] memory indexs = new uint[](80);\r\n\t    uint j = 0;\r\n\t    for( uint i = 0 ; i < leaves.length ; i++ ){\r\n\t        if(leaves[i].by == msg.sender){\r\n\t            indexs[j] = i+1;\r\n\t            j++;\r\n\t        }\r\n\t    }\r\n\t    return indexs;\r\n\t}\r\n\t\r\n\tfunction getEmployeeApprovedLeaveList() public isOwner constant returns (uint[]){\r\n\t    //maximum restriction of 80 leaves\r\n\t    uint[] memory indexs = new uint[](80);\r\n\t    uint j = 0;\r\n\t    for( uint i = 0 ; i < leaves.length ; i++ ){\r\n\t        if(leaves[i].approved){\r\n\t            indexs[j] = i+1;\r\n\t            j++;\r\n\t        }\r\n\t    }\r\n\t    return indexs;\r\n\t}\r\n\t\r\n\tfunction getEmployeePendingLeaveList() public isOwner constant returns (uint[]){\r\n\t    //maximum restriction of 80 leaves\r\n\t    uint[] memory indexs = new uint[](80);\r\n\t    uint j = 0;\r\n\t    for( uint i = 0 ; i < leaves.length ; i++ ){\r\n\t        if(!leaves[i].approved){\r\n\t            indexs[j] = i+1;\r\n\t            j++;\r\n\t        }\r\n\t    }\r\n\t    return indexs;\r\n\t}\r\n\t\r\n\tfunction getLeaveDetail(uint index) public constant returns (uint, uint, bool, address, uint, address){\r\n        Leave memory _leave = leaves[index];\r\n        if(_leave.by == msg.sender || msg.sender == owner){\r\n            return (_leave.id, _leave.no_days, _leave.approved, _leave.by, _leave.action_at, _leave.action_by);\r\n        }else{\r\n            revert();\r\n        }\r\n\t}\r\n\t\r\n\t\r\n\t\r\n\t//employee earn leaves every month\r\n\tfunction addEmployeeLeave(address employee, uint monthly_leaves) public isOwner {\r\n\t    \r\n\t    //this will not work because msg.sender will be seen as the contract \r\n\t    //rather than actual person doing the transaction.\r\n\t    //so either this contract should have tokens or it will assume contract having 0 tokens\r\n\t    // https://ethereum.stackexchange.com/questions/28328/unable-to-call-token-contract-function-from-another-contract\r\n        require(token.transfer(employee, monthly_leaves * 10 ** 18));\r\n\t}\r\n\t  \r\n\tfunction buyLeave() public payable {\r\n\t    require(msg.value > 0);\r\n\t    uint256 rate = exchangeRate();\r\n\t    token.transfer(msg.sender, msg.value * rate);\r\n\t    owner.transfer(msg.value);\r\n\t}\r\n\tfunction exchangeRate() public pure returns (uint256) {\r\n\t    return 1000;\r\n\t}\r\n\tfunction tokensAvailable() public constant returns (uint256) {\r\n        return token.balanceOf(this);\r\n    }\r\n\tfunction destroy() isOwner public{\r\n        uint256 balance = tokensAvailable();\r\n        require (balance > 0);\r\n        token.transfer(owner, balance);\r\n        selfdestruct(owner);\r\n    }\r\n}",
  "sourcePath": "/mnt/c/work/vue-leave-system/contracts/LeaveSystemTokenized.sol",
  "compiler": {
    "name": "solc",
    "version": "0.4.23+commit.124ca40d.Emscripten.clang"
  },
  "schemaVersion": "2.0.0",
  "updatedAt": "2018-06-07T07:10:01.042Z"
}